{
  "_format": "hh-sol-artifact-1",
  "contractName": "UniStrategy",
  "sourceName": "contracts/UniStrategy.sol",
  "abi": [
    {
      "inputs": [
        {
          "internalType": "address",
          "name": "_governance",
          "type": "address"
        }
      ],
      "stateMutability": "nonpayable",
      "type": "constructor"
    },
    {
      "anonymous": false,
      "inputs": [
        {
          "indexed": false,
          "internalType": "int24",
          "name": "oldMultiplier",
          "type": "int24"
        },
        {
          "indexed": false,
          "internalType": "int24",
          "name": "newMultiplier",
          "type": "int24"
        }
      ],
      "name": "BaseMultiplierUpdated",
      "type": "event"
    },
    {
      "anonymous": false,
      "inputs": [
        {
          "indexed": false,
          "internalType": "int24",
          "name": "oldDeviation",
          "type": "int24"
        },
        {
          "indexed": false,
          "internalType": "int24",
          "name": "newDeviation",
          "type": "int24"
        }
      ],
      "name": "MaxTwapDeviationUpdated",
      "type": "event"
    },
    {
      "anonymous": false,
      "inputs": [
        {
          "indexed": false,
          "internalType": "uint24",
          "name": "oldThreshold",
          "type": "uint24"
        },
        {
          "indexed": false,
          "internalType": "uint24",
          "name": "newThreshold",
          "type": "uint24"
        }
      ],
      "name": "PriceThresholdUpdated",
      "type": "event"
    },
    {
      "anonymous": false,
      "inputs": [
        {
          "indexed": false,
          "internalType": "int24",
          "name": "oldMultiplier",
          "type": "int24"
        },
        {
          "indexed": false,
          "internalType": "int24",
          "name": "newMultiplier",
          "type": "int24"
        }
      ],
      "name": "RangeMultiplierUpdated",
      "type": "event"
    },
    {
      "anonymous": false,
      "inputs": [
        {
          "components": [
            {
              "internalType": "int24",
              "name": "baseThreshold",
              "type": "int24"
            },
            {
              "internalType": "int24",
              "name": "rangeThreshold",
              "type": "int24"
            },
            {
              "internalType": "int24",
              "name": "maxTwapDeviation",
              "type": "int24"
            },
            {
              "internalType": "int24",
              "name": "readjustThreshold",
              "type": "int24"
            },
            {
              "internalType": "uint32",
              "name": "twapDuration",
              "type": "uint32"
            }
          ],
          "indexed": false,
          "internalType": "struct IUniStrategy.PoolStrategy",
          "name": "oldStrategy",
          "type": "tuple"
        },
        {
          "components": [
            {
              "internalType": "int24",
              "name": "baseThreshold",
              "type": "int24"
            },
            {
              "internalType": "int24",
              "name": "rangeThreshold",
              "type": "int24"
            },
            {
              "internalType": "int24",
              "name": "maxTwapDeviation",
              "type": "int24"
            },
            {
              "internalType": "int24",
              "name": "readjustThreshold",
              "type": "int24"
            },
            {
              "internalType": "uint32",
              "name": "twapDuration",
              "type": "uint32"
            }
          ],
          "indexed": false,
          "internalType": "struct IUniStrategy.PoolStrategy",
          "name": "newStrategy",
          "type": "tuple"
        }
      ],
      "name": "StrategyUpdated",
      "type": "event"
    },
    {
      "anonymous": false,
      "inputs": [
        {
          "indexed": false,
          "internalType": "uint8",
          "name": "oldPercentage",
          "type": "uint8"
        },
        {
          "indexed": false,
          "internalType": "uint8",
          "name": "newPercentage",
          "type": "uint8"
        }
      ],
      "name": "SwapPercentageUpdated",
      "type": "event"
    },
    {
      "anonymous": false,
      "inputs": [
        {
          "indexed": false,
          "internalType": "uint32",
          "name": "oldDuration",
          "type": "uint32"
        },
        {
          "indexed": false,
          "internalType": "uint32",
          "name": "newDuration",
          "type": "uint32"
        }
      ],
      "name": "TwapDurationUpdated",
      "type": "event"
    },
    {
      "inputs": [],
      "name": "baseMultiplier",
      "outputs": [
        {
          "internalType": "int24",
          "name": "",
          "type": "int24"
        }
      ],
      "stateMutability": "view",
      "type": "function"
    },
    {
      "inputs": [
        {
          "components": [
            {
              "internalType": "int24",
              "name": "baseThreshold",
              "type": "int24"
            },
            {
              "internalType": "int24",
              "name": "rangeThreshold",
              "type": "int24"
            },
            {
              "internalType": "int24",
              "name": "maxTwapDeviation",
              "type": "int24"
            },
            {
              "internalType": "int24",
              "name": "readjustThreshold",
              "type": "int24"
            },
            {
              "internalType": "uint32",
              "name": "twapDuration",
              "type": "uint32"
            }
          ],
          "internalType": "struct IUniStrategy.PoolStrategy",
          "name": "params",
          "type": "tuple"
        },
        {
          "internalType": "address",
          "name": "_pool",
          "type": "address"
        }
      ],
      "name": "changeStrategy",
      "outputs": [],
      "stateMutability": "nonpayable",
      "type": "function"
    },
    {
      "inputs": [
        {
          "internalType": "address",
          "name": "_pool",
          "type": "address"
        }
      ],
      "name": "getReadjustThreshold",
      "outputs": [
        {
          "internalType": "int24",
          "name": "readjustThreshold",
          "type": "int24"
        }
      ],
      "stateMutability": "view",
      "type": "function"
    },
    {
      "inputs": [
        {
          "internalType": "address",
          "name": "_pool",
          "type": "address"
        }
      ],
      "name": "getStrategy",
      "outputs": [
        {
          "components": [
            {
              "internalType": "int24",
              "name": "baseThreshold",
              "type": "int24"
            },
            {
              "internalType": "int24",
              "name": "rangeThreshold",
              "type": "int24"
            },
            {
              "internalType": "int24",
              "name": "maxTwapDeviation",
              "type": "int24"
            },
            {
              "internalType": "int24",
              "name": "readjustThreshold",
              "type": "int24"
            },
            {
              "internalType": "uint32",
              "name": "twapDuration",
              "type": "uint32"
            }
          ],
          "internalType": "struct IUniStrategy.PoolStrategy",
          "name": "strategy",
          "type": "tuple"
        }
      ],
      "stateMutability": "view",
      "type": "function"
    },
    {
      "inputs": [
        {
          "internalType": "address",
          "name": "_pool",
          "type": "address"
        }
      ],
      "name": "getTicks",
      "outputs": [
        {
          "internalType": "int24",
          "name": "baseLower",
          "type": "int24"
        },
        {
          "internalType": "int24",
          "name": "baseUpper",
          "type": "int24"
        },
        {
          "internalType": "int24",
          "name": "bidLower",
          "type": "int24"
        },
        {
          "internalType": "int24",
          "name": "bidUpper",
          "type": "int24"
        },
        {
          "internalType": "int24",
          "name": "askLower",
          "type": "int24"
        },
        {
          "internalType": "int24",
          "name": "askUpper",
          "type": "int24"
        }
      ],
      "stateMutability": "nonpayable",
      "type": "function"
    },
    {
      "inputs": [
        {
          "internalType": "address",
          "name": "_pool",
          "type": "address"
        }
      ],
      "name": "getTwap",
      "outputs": [
        {
          "internalType": "int24",
          "name": "",
          "type": "int24"
        }
      ],
      "stateMutability": "view",
      "type": "function"
    },
    {
      "inputs": [],
      "name": "governance",
      "outputs": [
        {
          "internalType": "address",
          "name": "",
          "type": "address"
        }
      ],
      "stateMutability": "view",
      "type": "function"
    },
    {
      "inputs": [],
      "name": "rangeMultiplier",
      "outputs": [
        {
          "internalType": "int24",
          "name": "",
          "type": "int24"
        }
      ],
      "stateMutability": "view",
      "type": "function"
    },
    {
      "inputs": [
        {
          "internalType": "int24",
          "name": "_baseMultiplier",
          "type": "int24"
        }
      ],
      "name": "setBaseMutiplier",
      "outputs": [],
      "stateMutability": "nonpayable",
      "type": "function"
    },
    {
      "inputs": [
        {
          "internalType": "int24",
          "name": "_twapDeviation",
          "type": "int24"
        }
      ],
      "name": "setMaxTwapDeviation",
      "outputs": [],
      "stateMutability": "nonpayable",
      "type": "function"
    },
    {
      "inputs": [
        {
          "internalType": "int24",
          "name": "_rangeMultiplier",
          "type": "int24"
        }
      ],
      "name": "setRangeMultiplier",
      "outputs": [],
      "stateMutability": "nonpayable",
      "type": "function"
    },
    {
      "inputs": [
        {
          "internalType": "int24",
          "name": "_readjustMultipier",
          "type": "int24"
        }
      ],
      "name": "setReadjustMultiplier",
      "outputs": [],
      "stateMutability": "nonpayable",
      "type": "function"
    },
    {
      "inputs": [
        {
          "internalType": "uint32",
          "name": "_twapDuration",
          "type": "uint32"
        }
      ],
      "name": "setTwapDuration",
      "outputs": [],
      "stateMutability": "nonpayable",
      "type": "function"
    },
    {
      "inputs": [],
      "name": "unipilot",
      "outputs": [
        {
          "internalType": "address",
          "name": "",
          "type": "address"
        }
      ],
      "stateMutability": "view",
      "type": "function"
    },
    {
      "inputs": [
        {
          "internalType": "address",
          "name": "_unipilot",
          "type": "address"
        }
      ],
      "name": "updateUnipilotAddress",
      "outputs": [],
      "stateMutability": "nonpayable",
      "type": "function"
    }
  ],
  "bytecode": "0x608060405234801561001057600080fd5b50604051611fa3380380611fa383398101604081905261002f916100ab565b600080546001600160a01b0319166001600160a01b039290921691909117905560018054600280546001600160e81b03909216604b60ec1b1762ffffff60a01b1916600560a01b1762ffffff60b81b1916600160ba1b17909255600a66ffffffff00000019909116633c0000001762ffffff19161790556100d9565b6000602082840312156100bc578081fd5b81516001600160a01b03811681146100d2578182fd5b9392505050565b611ebb806100e86000396000f3fe608060405234801561001057600080fd5b50600436106100f55760003560e01c8063802036f511610097578063d60a095511610066578063d60a0955146101e1578063dab62a2f146101e9578063f0cc9295146101fc578063f8806a131461020f576100f5565b8063802036f51461018e578063c433c80a146101b3578063ce7a6718146101c6578063d4f9b7a7146101ce576100f5565b80633d47d227116100d35780633d47d227146101355780634ed8cf271461015e57806357829029146101715780635aa6e67514610179576100f5565b80632b56a9c3146100fa578063378af1f81461010f5780633cbff3fe14610122575b600080fd5b61010d610108366004611908565b61022f565b005b61010d61011d366004611a0d565b6102c2565b61010d610130366004611a0d565b61038c565b610148610143366004611908565b610425565b6040516101559190611c6d565b60405180910390f35b61014861016c366004611908565b6105ae565b6101486105d3565b6101816105e3565b6040516101559190611c0f565b6101a161019c366004611908565b6105f2565b60405161015596959493929190611c8f565b61010d6101c1366004611bb3565b610a3d565b610181610ac0565b61010d6101dc366004611a0d565b610acf565b610148610b1f565b61010d6101f7366004611a45565b610b2f565b61010d61020a366004611a0d565b610d8d565b61022261021d366004611908565b610e4c565b6040516101559190611dc6565b6000546001600160a01b031633146102625760405162461bcd60e51b815260040161025990611d71565b60405180910390fd5b6001600160a01b0381166102885760405162461bcd60e51b815260040161025990611d1b565b600180547fffffffffffffffffffffffff0000000000000000000000000000000000000000166001600160a01b0392909216919091179055565b6000546001600160a01b031633146102ec5760405162461bcd60e51b815260040161025990611d71565b60008160020b1361030f5760405162461bcd60e51b815260040161025990611d54565b60018054600283810b62ffffff16600160b81b9081027fffffffffffff000000ffffffffffffffffffffffffffffffffffffffffffffff8416179093556040517fa837e2fe353f6b3e5f9fa8427342375427e132fea45719ed35278e8916f46fbc93610381930490910b908490611c7b565b60405180910390a150565b6000546001600160a01b031633146103b65760405162461bcd60e51b815260040161025990611d71565b60018054600283810b62ffffff16600160e81b9081027cffffffffffffffffffffffffffffffffffffffffffffffffffffffffff8416179093556040517fb32bf5279c25f60e729f297567e5882813fe72a29dec91009962465b6a98a15f93610381930490910b908490611c7b565b60408051600280825260608201835260009283929190602083019080368337019050506001600160a01b0384166000908152600360205260408120548251929350600160601b900463ffffffff169183919061047d57fe5b602002602001019063ffffffff16908163ffffffff16815250506000816001815181106104a657fe5b63ffffffff9092166020928302919091019091015260405163883bdbfd60e01b81526000906001600160a01b0385169063883bdbfd906104ea908590600401611c23565b60006040518083038186803b15801561050257600080fd5b505afa158015610516573d6000803e3d6000fd5b505050506040513d6000823e601f3d908101601f1916820160405261053e919081019061192b565b506001600160a01b03851660009081526003602081905260408220548351939450600160601b900463ffffffff16900b60060b9183919061057b57fe5b60200260200101518260018151811061059057fe5b60200260200101510360060b816105a357fe5b05925050505b919050565b6001600160a01b0316600090815260036020526040902054600160481b900460020b90565b600154600160a01b900460020b81565b6000546001600160a01b031681565b600154604051631439a54760e31b8152600091829182918291829182916001600160a01b039091169063a1cd2a389061062f903390600401611c0f565b60206040518083038186803b15801561064757600080fd5b505afa15801561065b573d6000803e3d6000fd5b505050506040513d601f19601f8201168201806040525081019061067f91906119f3565b61069b5760405162461bcd60e51b815260040161025990611ce0565b6000806106a789610ed9565b6001600160a01b038b166000908152600360205260409020549193509150600290810b900b61080c576040805160a081018252600154600160b81b8104600290810b850280820b8452600160a01b8304820b8602820b6020850152600160e81b909204810b810b9383019390935282549192606084019260649290820b02900b05600290810b8252805463ffffffff63010000009182900481166020948501526001600160a01b038e166000908152600385526040908190208651815496880151928801516060890151608090990151909416600160601b026fffffffff0000000000000000000000001998870b62ffffff908116600160481b026bffffff0000000000000000001996890b821666010000000000000268ffffff00000000000019968a0b831690980265ffffff000000199490990b90911662ffffff1990991698909817919091169590951791909116929092171692909217929092169190911790555b6001600160a01b03891660009081526003602052604081208054600180547fffffff000000ffffffffffffffffffffffffffffffffffffffffffffffffffff16600160d01b62ffffff6301000000909404600290810b810b94909416810291909117918290559254929004810b810b91810b900b1361089757600154600160d01b900460020b6108b4565b6001600160a01b038a1660009081526003602052604090205460020b5b90508181620d89e719010160020b8360020b1380156108e357508181620d89e719600003030360020b8360020b125b6108ff5760405162461bcd60e51b815260040161025990611d8d565b600061090a8b610fd6565b905060008160020b8560020b1361092357848203610927565b8185035b6001600160a01b038d1660009081526003602052604090205490915066010000000000009004600290810b810b9082900b13156109765760405162461bcd60e51b815260040161025990611d37565b60006109828686611101565b905060008582019050600360008f6001600160a01b03166001600160a01b0316815260200190815260200160002060000160009054906101000a900460020b82039c50600360008f6001600160a01b03166001600160a01b0316815260200190815260200160002060000160009054906101000a900460020b82019b506001601a9054906101000a900460020b82039a508199508098506001601a9054906101000a900460020b810197505050505050505091939550919395565b6000546001600160a01b03163314610a675760405162461bcd60e51b815260040161025990611d71565b6002805463ffffffff838116630100000090810266ffffffff000000198416179093556040517f1c373b0a9b89049c835cfc0851faad1f23dbb7e5bd46cf58eb88da4dd760378b93610381930491909116908490611e31565b6001546001600160a01b031681565b6000546001600160a01b03163314610af95760405162461bcd60e51b815260040161025990611d71565b60008160020b13610b1c5760405162461bcd60e51b815260040161025990611cfd565b50565b600154600160b81b900460020b81565b6000546001600160a01b03163314610b595760405162461bcd60e51b815260040161025990611d71565b6001600160a01b038116600081815260036020908152604091829020825160a0810184529054600281810b810b810b835263010000008204810b810b810b8385015266010000000000008204810b810b810b83860152600160481b8204810b810b900b6060830152600160601b900463ffffffff166080820152855183516334324e9f60e21b815293519194610c4c949193909263d0c93a7c926004808201939291829003018186803b158015610c0f57600080fd5b505afa158015610c23573d6000803e3d6000fd5b505050506040513d601f19601f82011682018060405250810190610c479190611a29565b61114f565b6040805160a0810182528451600290810b8252602080870151820b81840190815287850151830b8486019081526060808a0151850b9086019081526080808b015163ffffffff9081169188019182526001600160a01b038b166000908152600390965294889020965187549451935192519151909516600160601b026fffffffff0000000000000000000000001991870b62ffffff908116600160481b026bffffff0000000000000000001994890b821666010000000000000268ffffff00000000000019968a0b831663010000000265ffffff0000001999909a0b90921662ffffff19909716969096179690961696909617929092169390931792909216171617815590517f4fbe17edcf333bc8ed37ac7def64da9ac2726f481aaa733d9c8a64e5fa481dfb91610d8091849190611dd4565b60405180910390a1505050565b6000546001600160a01b03163314610db75760405162461bcd60e51b815260040161025990611d71565b60008160020b13610dda5760405162461bcd60e51b815260040161025990611da9565b60018054600283810b62ffffff16600160a01b9081027fffffffffffffffffff000000ffffffffffffffffffffffffffffffffffffffff8416179093556040517f56bb62d4cba7906c56c6024c27acdc59a41b247ddaec35c250c6a384ccf7df1093610381930490910b908490611c7b565b610e54611819565b506001600160a01b0316600090815260036020908152604091829020825160a0810184529054600281810b810b810b835263010000008204810b810b810b9383019390935266010000000000008104830b830b830b93820193909352600160481b8304820b820b90910b6060820152600160601b90910463ffffffff16608082015290565b600080826001600160a01b0316633850c7bd6040518163ffffffff1660e01b815260040160e06040518083038186803b158015610f1557600080fd5b505afa158015610f29573d6000803e3d6000fd5b505050506040513d601f19601f82011682018060405250810190610f4d9190611b22565b5050604080516334324e9f60e21b815290519497506001600160a01b038916955063d0c93a7c94600480830195506020945090925090829003018186803b158015610f9757600080fd5b505afa158015610fab573d6000803e3d6000fd5b505050506040513d601f19601f82011682018060405250810190610fcf9190611a29565b9050915091565b600080826001600160a01b0316631a6865026040518163ffffffff1660e01b815260040160206040518083038186803b15801561101257600080fd5b505afa158015611026573d6000803e3d6000fd5b505050506040513d601f19601f8201168201806040525081019061104a9190611af2565b90506fffffffffffffffffffffffffffffffff81166110ef576000836001600160a01b0316633850c7bd6040518163ffffffff1660e01b815260040160e06040518083038186803b15801561109e57600080fd5b505afa1580156110b2573d6000803e3d6000fd5b505050506040513d601f19601f820116820180604052508101906110d69190611b22565b50505050505090506110e7816111a5565b9250506110fb565b6110f883610425565b91505b50919050565b6000808260020b8460020b8161111357fe5b05905060008460020b12801561113a57508260020b8460020b8161113357fe5b0760020b15155b1561114457600019015b820290505b92915050565b620d89e8600283900b1380159061117657508060020b8260020b8161117057fe5b0760020b155b8015611185575060008260020b135b6111a15760405162461bcd60e51b815260040161025990611cc3565b5050565b60006401000276a36001600160a01b038316108015906111e1575073fffd8963efd1fc6a506488495d951d5263988d266001600160a01b038316105b611216576040805162461bcd60e51b81526020600482015260016024820152602960f91b604482015290519081900360640190fd5b77ffffffffffffffffffffffffffffffffffffffff00000000602083901b166fffffffffffffffffffffffffffffffff811160071b81811c67ffffffffffffffff811160061b90811c63ffffffff811160051b90811c61ffff811160041b90811c60ff8111600390811b91821c600f811160021b90811c918211600190811b92831c979088119617909417909217179091171717608081106112c057607f810383901c91506112ca565b80607f0383901b91505b908002607f81811c60ff83811c9190911c800280831c81831c1c800280841c81841c1c800280851c81851c1c800280861c81861c1c800280871c81871c1c800280881c81881c1c800280891c81891c1c8002808a1c818a1c1c8002808b1c818b1c1c8002808c1c818c1c1c8002808d1c818d1c1c8002808e1c9c81901c9c909c1c80029c8d901c9e9d607f198f0160401b60c09190911c678000000000000000161760c19b909b1c674000000000000000169a909a1760c29990991c672000000000000000169890981760c39790971c671000000000000000169690961760c49590951c670800000000000000169490941760c59390931c670400000000000000169290921760c69190911c670200000000000000161760c79190911c670100000000000000161760c89190911c6680000000000000161760c99190911c6640000000000000161760ca9190911c6620000000000000161760cb9190911c6610000000000000161760cc9190911c6608000000000000161760cd9190911c66040000000000001617693627a301d71055774c8581026f028f6481ab7f045a5af012a19d003aa9198101608090811d906fdb2df09e81959a81455e260799a0632f8301901d600281810b9083900b146114cb57886001600160a01b03166114af826114da565b6001600160a01b031611156114c457816114c6565b805b6114cd565b815b9998505050505050505050565b60008060008360020b126114f1578260020b6114f9565b8260020b6000035b9050620d89e8811115611537576040805162461bcd60e51b81526020600482015260016024820152601560fa1b604482015290519081900360640190fd5b6000600182166115585770010000000000000000000000000000000061156a565b6ffffcb933bd6fad37aa2d162d1a5940015b70ffffffffffffffffffffffffffffffffff169050600282161561159e576ffff97272373d413259a46990580e213a0260801c5b60048216156115bd576ffff2e50f5f656932ef12357cf3c7fdcc0260801c5b60088216156115dc576fffe5caca7e10e4e61c3624eaa0941cd00260801c5b60108216156115fb576fffcb9843d60f6159c9db58835c9266440260801c5b602082161561161a576fff973b41fa98c081472e6896dfb254c00260801c5b6040821615611639576fff2ea16466c96a3843ec78b326b528610260801c5b6080821615611658576ffe5dee046a99a2a811c461f1969c30530260801c5b610100821615611678576ffcbe86c7900a88aedcffc83b479aa3a40260801c5b610200821615611698576ff987a7253ac413176f2b074cf7815e540260801c5b6104008216156116b8576ff3392b0822b70005940c7a398e4b70f30260801c5b6108008216156116d8576fe7159475a2c29b7443b29c7fa6e889d90260801c5b6110008216156116f8576fd097f3bdfd2022b8845ad8f792aa58250260801c5b612000821615611718576fa9f746462d870fdf8a65dc1f90e061e50260801c5b614000821615611738576f70d869a156d2a1b890bb3df62baf32f70260801c5b618000821615611758576f31be135f97d08fd981231505542fcfa60260801c5b62010000821615611779576f09aa508b5b7a84e1c677de54f3e99bc90260801c5b62020000821615611799576e5d6af8dedb81196699c329225ee6040260801c5b620400008216156117b8576d2216e584f5fa1ea926041bedfe980260801c5b620800008216156117d5576b048a170391f7dc42444e8fa20260801c5b60008460020b13156117f05780600019816117ec57fe5b0490505b640100000000810615611804576001611807565b60005b60ff16602082901c0192505050919050565b6040805160a08101825260008082526020820181905291810182905260608101829052608081019190915290565b80356105a981611e8a565b600082601f830112611862578081fd5b8151602061187761187283611e6c565b611e48565b8281528181019085830183850287018401881015611893578586fd5b855b858110156118ba5781516118a881611e8a565b84529284019290840190600101611895565b5090979650505050505050565b805180151581146105a957600080fd5b80356105a981611e9f565b805161ffff811681146105a957600080fd5b803563ffffffff811681146105a957600080fd5b600060208284031215611919578081fd5b813561192481611e8a565b9392505050565b6000806040838503121561193d578081fd5b825167ffffffffffffffff80821115611954578283fd5b818501915085601f830112611967578283fd5b8151602061197761187283611e6c565b82815281810190858301838502870184018b1015611993578788fd5b8796505b848710156119c35780518060060b81146119af578889fd5b835260019690960195918301918301611997565b50918801519196509093505050808211156119dc578283fd5b506119e985828601611852565b9150509250929050565b600060208284031215611a04578081fd5b611924826118c7565b600060208284031215611a1e578081fd5b813561192481611e9f565b600060208284031215611a3a578081fd5b815161192481611e9f565b60008082840360c0811215611a58578283fd5b60a0811215611a65578283fd5b5060405160a0810181811067ffffffffffffffff82111715611a8357fe5b6040528335611a9181611e9f565b81526020840135611aa181611e9f565b60208201526040840135611ab481611e9f565b6040820152611ac5606085016118d7565b6060820152611ad6608085016118f4565b60808201529150611ae960a08401611847565b90509250929050565b600060208284031215611b03578081fd5b81516fffffffffffffffffffffffffffffffff81168114611924578182fd5b600080600080600080600060e0888a031215611b3c578283fd5b8751611b4781611e8a565b6020890151909750611b5881611e9f565b9550611b66604089016118e2565b9450611b74606089016118e2565b9350611b82608089016118e2565b925060a088015160ff81168114611b97578283fd5b9150611ba560c089016118c7565b905092959891949750929550565b600060208284031215611bc4578081fd5b611924826118f4565b805160020b8252602081015160020b6020830152604081015160020b6040830152606081015160020b606083015263ffffffff60808201511660808301525050565b6001600160a01b0391909116815260200190565b6020808252825182820181905260009190848201906040850190845b81811015611c6157835163ffffffff1683529284019291840191600101611c3f565b50909695505050505050565b60029190910b815260200190565b600292830b8152910b602082015260400190565b600296870b815294860b602086015292850b604085015290840b6060840152830b608083015290910b60a082015260c00190565b602080825260039082015262494e5360e81b604082015260600190565b602080825260039082015262454e5760e81b604082015260600190565b6020808252600490820152634952454d60e01b604082015260600190565b6020808252600290820152615a4160f01b604082015260600190565b60208082526003908201526226aa2360e91b604082015260600190565b60208082526003908201526249424d60e81b604082015260600190565b6020808252600290820152614e4760f01b604082015260600190565b602080825260029082015261125560f21b604082015260600190565b60208082526003908201526249524d60e81b604082015260600190565b60a081016111498284611bcd565b6101408101611de38285611bcd565b9154600281810b810b60a0840152601882901c810b810b60c0840152603082901c810b810b60e0840152604882901c810b900b61010083015260601c63ffffffff1661012090910152919050565b63ffffffff92831681529116602082015260400190565b60405181810167ffffffffffffffff81118282101715611e6457fe5b604052919050565b600067ffffffffffffffff821115611e8057fe5b5060209081020190565b6001600160a01b0381168114610b1c57600080fd5b8060020b8114610b1c57600080fdfea164736f6c6343000706000a",
  "linkReferences": {},
  "deployedLinkReferences": {}
}