{
  "_format": "hh-sol-artifact-1",
  "contractName": "MockUniswapV3Router",
  "sourceName": "contracts/TestModule/setupModules/setupMock.sol",
  "abi": [
    {
      "inputs": [
        {
          "internalType": "contract ISwapRouter",
          "name": "_swapRouter",
          "type": "address"
        }
      ],
      "stateMutability": "nonpayable",
      "type": "constructor"
    },
    {
      "inputs": [
        {
          "internalType": "uint256",
          "name": "amountIn",
          "type": "uint256"
        },
        {
          "internalType": "address",
          "name": "token0",
          "type": "address"
        },
        {
          "internalType": "address",
          "name": "token1",
          "type": "address"
        },
        {
          "internalType": "uint24",
          "name": "fee",
          "type": "uint24"
        }
      ],
      "name": "swapExactInputSingle",
      "outputs": [
        {
          "internalType": "uint256",
          "name": "amountOut",
          "type": "uint256"
        }
      ],
      "stateMutability": "nonpayable",
      "type": "function"
    },
    {
      "inputs": [],
      "name": "swapRouter",
      "outputs": [
        {
          "internalType": "contract ISwapRouter",
          "name": "",
          "type": "address"
        }
      ],
      "stateMutability": "view",
      "type": "function"
    }
  ],
  "bytecode": "0x60a060405234801561001057600080fd5b5060405161065038038061065083398101604081905261002f91610044565b60601b6001600160601b031916608052610072565b600060208284031215610055578081fd5b81516001600160a01b038116811461006b578182fd5b9392505050565b60805160601c6105b861009860003980608d528061011152806101a452506105b86000f3fe608060405234801561001057600080fd5b50600436106100365760003560e01c8063bd13338c1461003b578063c31c9c0714610064575b600080fd5b61004e6100493660046104ca565b610079565b60405161005b91906105a2565b60405180910390f35b61006c6101a2565b60405161005b919061051f565b6000610087843330886101c6565b6100b2847f000000000000000000000000000000000000000000000000000000000000000087610333565b60408051610100810182526001600160a01b038087168252858116602083015262ffffff8516828401523360608301526102584201608083015260a08201889052600060c0830181905260e0830152915163414bf38960e01b815290917f0000000000000000000000000000000000000000000000000000000000000000169063414bf38990610146908490600401610533565b602060405180830381600087803b15801561016057600080fd5b505af1158015610174573d6000803e3d6000fd5b505050506040513d601f19601f8201168201806040525081019061019891906104b2565b9695505050505050565b7f000000000000000000000000000000000000000000000000000000000000000081565b604080516001600160a01b0385811660248301528481166044830152606480830185905283518084039091018152608490920183526020820180517bffffffffffffffffffffffffffffffffffffffffffffffffffffffff166323b872dd60e01b178152925182516000948594938a169392918291908083835b6020831061025f5780518252601f199092019160209182019101610240565b6001836020036101000a0380198251168184511680821785525050505050509050019150506000604051808303816000865af19150503d80600081146102c1576040519150601f19603f3d011682016040523d82523d6000602084013e6102c6565b606091505b50915091508180156102f45750805115806102f457508080602001905160208110156102f157600080fd5b50515b61032b576040805162461bcd60e51b815260206004820152600360248201526229aa2360e91b604482015290519081900360640190fd5b505050505050565b604080516001600160a01b038481166024830152604480830185905283518084039091018152606490920183526020820180517bffffffffffffffffffffffffffffffffffffffffffffffffffffffff1663095ea7b360e01b1781529251825160009485949389169392918291908083835b602083106103c45780518252601f1990920191602091820191016103a5565b6001836020036101000a0380198251168184511680821785525050505050509050019150506000604051808303816000865af19150503d8060008114610426576040519150601f19603f3d011682016040523d82523d6000602084013e61042b565b606091505b5091509150818015610459575080511580610459575080806020019051602081101561045657600080fd5b50515b61048f576040805162461bcd60e51b8152602060048201526002602482015261534160f01b604482015290519081900360640190fd5b5050505050565b80356001600160a01b03811681146104ad57600080fd5b919050565b6000602082840312156104c3578081fd5b5051919050565b600080600080608085870312156104df578283fd5b843593506104ef60208601610496565b92506104fd60408601610496565b9150606085013562ffffff81168114610514578182fd5b939692955090935050565b6001600160a01b0391909116815260200190565b6000610100820190506001600160a01b0380845116835280602085015116602084015262ffffff60408501511660408401528060608501511660608401526080840151608084015260a084015160a084015260c084015160c08401528060e08501511660e08401525092915050565b9081526020019056fea164736f6c6343000706000a",
  "linkReferences": {},
  "deployedLinkReferences": {}
}