{
  "_format": "hh-sol-artifact-1",
  "contractName": "DemoTestWithSetUp",
  "sourceName": "contracts/TestModule/Dapp/lib/ds-test/demo/demo.sol",
  "abi": [
    {
      "inputs": [],
      "name": "setUp",
      "outputs": [],
      "stateMutability": "nonpayable",
      "type": "function"
    },
    {
      "inputs": [],
      "name": "test_pass",
      "outputs": [],
      "stateMutability": "pure",
      "type": "function"
    }
  ],
  "bytecode": "0x6080604052348015600f57600080fd5b50604e80601d6000396000f3fe6080604052348015600f57600080fd5b506004361060325760003560e01c80630a9254e41460375780638ab68152146037575b600080fd5b603d603f565b005b56fea164736f6c6343000706000a",
  "deployedBytecode": "0x6080604052348015600f57600080fd5b506004361060325760003560e01c80630a9254e41460375780638ab68152146037575b600080fd5b603d603f565b005b56fea164736f6c6343000706000a",
  "linkReferences": {},
  "deployedLinkReferences": {}
}