{
  "_format": "hh-sol-artifact-1",
  "contractName": "VisorPOC",
  "sourceName": "contracts/TestModule/VisorPoC.sol",
  "abi": [
    {
      "inputs": [],
      "name": "rekt",
      "outputs": [],
      "stateMutability": "nonpayable",
      "type": "function"
    },
    {
      "inputs": [
        {
          "internalType": "address",
          "name": "",
          "type": "address"
        },
        {
          "internalType": "uint256",
          "name": "",
          "type": "uint256"
        },
        {
          "internalType": "uint256",
          "name": "amount1",
          "type": "uint256"
        },
        {
          "internalType": "bytes",
          "name": "",
          "type": "bytes"
        }
      ],
      "name": "uniswapV2Call",
      "outputs": [],
      "stateMutability": "nonpayable",
      "type": "function"
    },
    {
      "inputs": [
        {
          "internalType": "int256",
          "name": "amount0Delta",
          "type": "int256"
        },
        {
          "internalType": "int256",
          "name": "amount1Delta",
          "type": "int256"
        },
        {
          "internalType": "bytes",
          "name": "",
          "type": "bytes"
        }
      ],
      "name": "uniswapV3SwapCallback",
      "outputs": [],
      "stateMutability": "nonpayable",
      "type": "function"
    }
  ],
  "bytecode": "0x6080604052600080546001600160a01b031916733f805de0ec508bf7311baaa617015809be9ce95317905534801561003657600080fd5b50610ebb806100466000396000f3fe608060405234801561001057600080fd5b50600436106100415760003560e01c806310d1e85c14610046578063d362ae49146100d4578063fa461e33146100dc575b600080fd5b6100d26004803603608081101561005c57600080fd5b6001600160a01b03823516916020810135916040820135919081019060808101606082013564010000000081111561009357600080fd5b8201836020820111156100a557600080fd5b803590602001918460018302840111640100000000831117156100c757600080fd5b509092509050610158565b005b6100d2610994565b6100d2600480360360608110156100f257600080fd5b81359160208101359181019060608101604082013564010000000081111561011957600080fd5b82018360208201111561012b57600080fd5b8035906020019184600183028401116401000000008311171561014d57600080fd5b509092509050610b9d565b33739928e4046d7c6513326ccea028cd3e7a91c7590a1461017857600080fd5b604080516020810180835260008083529251630251596160e31b8152306004820181815260248301869052692a5a058fc295ed0000006044840181905273fffd8963efd1fc6a506488495d951d5263988d256064850181905260a060848601908152875160a4870152875173f87bb87fd9ea1c260ddf77b9c707ad9437ff83649963128acb08999698909794969395939460c401918083838b5b8381101561022a578181015183820152602001610212565b50505050905090810190601f1680156102575780820380516001836020036101000a031916815260200191505b5096505050505050506040805180830381600087803b15801561027957600080fd5b505af115801561028d573d6000803e3d6000fd5b505050506040513d60408110156102a357600080fd5b5050600080546040805163095ea7b360e01b81526001600160a01b03909216600483015260001960248301525173c02aaa39b223fe8d0a0e5c4f27ead9083c756cc29263095ea7b392604480820193602093909283900390910190829087803b15801561030f57600080fd5b505af1158015610323573d6000803e3d6000fd5b505050506040513d602081101561033957600080fd5b5050600054604080516370a0823160e01b815230600482015290516001600160a01b0390921691638dbdbe6d9173c02aaa39b223fe8d0a0e5c4f27ead9083c756cc2916370a0823191602480820192602092909190829003018186803b1580156103a257600080fd5b505afa1580156103b6573d6000803e3d6000fd5b505050506040513d60208110156103cc57600080fd5b5051604080516001600160e01b031960e085901b168152600481019290925260006024830181905230604484015290516064808401936020939083900390910190829087803b15801561041e57600080fd5b505af1158015610432573d6000803e3d6000fd5b505050506040513d602081101561044857600080fd5b5050600054604080516370a0823160e01b815230600482015290516001600160a01b039092169163b460af949183916370a0823191602480820192602092909190829003018186803b15801561049d57600080fd5b505afa1580156104b1573d6000803e3d6000fd5b505050506040513d60208110156104c757600080fd5b5051604080516001600160e01b031960e085901b16815260048101929092523060248301819052604483015280516064808401938290030181600087803b15801561051157600080fd5b505af1158015610525573d6000803e3d6000fd5b505050506040513d604081101561053b57600080fd5b5050600054604080516370a0823160e01b815230600482015290516001600160a01b0390921691638dbdbe6d9173c02aaa39b223fe8d0a0e5c4f27ead9083c756cc2916370a0823191602480820192602092909190829003018186803b1580156105a457600080fd5b505afa1580156105b8573d6000803e3d6000fd5b505050506040513d60208110156105ce57600080fd5b5051604080516001600160e01b031960e085901b168152600481019290925260006024830181905230604484015290516064808401936020939083900390910190829087803b15801561062057600080fd5b505af1158015610634573d6000803e3d6000fd5b505050506040513d602081101561064a57600080fd5b5050600054604080516370a0823160e01b815230600482015290516001600160a01b039092169163b460af949183916370a0823191602480820192602092909190829003018186803b15801561069f57600080fd5b505afa1580156106b3573d6000803e3d6000fd5b505050506040513d60208110156106c957600080fd5b5051604080516001600160e01b031960e085901b16815260048101929092523060248301819052604483015280516064808401938290030181600087803b15801561071357600080fd5b505af1158015610727573d6000803e3d6000fd5b505050506040513d604081101561073d57600080fd5b5050604080516370a0823160e01b81523060048201819052915173f87bb87fd9ea1c260ddf77b9c707ad9437ff83649263128acb0892909160019173c02aaa39b223fe8d0a0e5c4f27ead9083c756cc2916370a0823191602480820192602092909190829003018186803b1580156107b457600080fd5b505afa1580156107c8573d6000803e3d6000fd5b505050506040513d60208110156107de57600080fd5b50516040805160208101808352600080835292516001600160e01b031960e089901b1681526001600160a01b038716600482019081528615156024830152604482018690526401000276a46064830181905260a060848401908152855160a4850152855191969294909360c401929091908190849084905b8381101561086e578181015183820152602001610856565b50505050905090810190601f16801561089b5780820380516001836020036101000a031916815260200191505b5096505050505050506040805180830381600087803b1580156108bd57600080fd5b505af11580156108d1573d6000803e3d6000fd5b505050506040513d60408110156108e757600080fd5b50506040805163a9059cbb60e01b8152739928e4046d7c6513326ccea028cd3e7a91c7590a600482015260016103e56103e8870204016024820152905173c7283b66eb1eb5fb86327f08e1b5816b0720212b9163a9059cbb9160448083019260209291908290030181600087803b15801561096157600080fd5b505af1158015610975573d6000803e3d6000fd5b505050506040513d602081101561098b57600080fd5b50505050505050565b6109d26040518060400160405280601081526020017f63616c6c696e672072656b74206e6f7700000000000000000000000000000000815250610d0b565b60408051808201825260018152600360fc1b60208201908152915163022c0d9f60e01b8152600060048201818152692a5a058fc295ed000000602484018190523060448501819052608060648601908152865160848701528651739928e4046d7c6513326ccea028cd3e7a91c7590a9863022c0d9f98969794969395939460a401918083838b5b83811015610a71578181015183820152602001610a59565b50505050905090810190601f168015610a9e5780820380516001836020036101000a031916815260200191505b5095505050505050600060405180830381600087803b158015610ac057600080fd5b505af1158015610ad4573d6000803e3d6000fd5b5050604080516370a0823160e01b815230600482015290516000935073c7283b66eb1eb5fb86327f08e1b5816b0720212b92506370a0823191602480820192602092909190829003018186803b158015610b2d57600080fd5b505afa158015610b41573d6000803e3d6000fd5b505050506040513d6020811015610b5757600080fd5b505160408051808201909152600881527f50726f6669743a200000000000000000000000000000000000000000000000006020820152909150610b9a9082610dc6565b50565b3373f87bb87fd9ea1c260ddf77b9c707ad9437ff836414610bbd57600080fd5b6000841315610c61576040805163a9059cbb60e01b815273f87bb87fd9ea1c260ddf77b9c707ad9437ff8364600482015260248101869052905173c02aaa39b223fe8d0a0e5c4f27ead9083c756cc29163a9059cbb9160448083019260209291908290030181600087803b158015610c3457600080fd5b505af1158015610c48573d6000803e3d6000fd5b505050506040513d6020811015610c5e57600080fd5b50505b6000831315610d05576040805163a9059cbb60e01b815273f87bb87fd9ea1c260ddf77b9c707ad9437ff8364600482015260248101859052905173c7283b66eb1eb5fb86327f08e1b5816b0720212b9163a9059cbb9160448083019260209291908290030181600087803b158015610cd857600080fd5b505af1158015610cec573d6000803e3d6000fd5b505050506040513d6020811015610d0257600080fd5b50505b50505050565b610b9a816040516024018080602001828103825283818151815260200191508051906020019080838360005b83811015610d4f578181015183820152602001610d37565b50505050905090810190601f168015610d7c5780820380516001836020036101000a031916815260200191505b5060408051601f198184030181529190526020810180517bffffffffffffffffffffffffffffffffffffffffffffffffffffffff1663104c13eb60e21b1790529250610e8d915050565b610e8982826040516024018080602001838152602001828103825284818151815260200191508051906020019080838360005b83811015610e11578181015183820152602001610df9565b50505050905090810190601f168015610e3e5780820380516001836020036101000a031916815260200191505b5060408051601f198184030181529190526020810180517bffffffffffffffffffffffffffffffffffffffffffffffffffffffff166309710a9d60e41b1790529350610e8d92505050565b5050565b80516a636f6e736f6c652e6c6f67602083016000808483855afa505050505056fea164736f6c6343000706000a",
  "linkReferences": {},
  "deployedLinkReferences": {}
}